{
  "contractName": "Accident",
  "abi": [
    {
      "constant": true,
      "inputs": [
        {
          "name": "",
          "type": "uint256"
        }
      ],
      "name": "sites",
      "outputs": [
        {
          "name": "id",
          "type": "uint256"
        },
        {
          "name": "area",
          "type": "string"
        },
        {
          "name": "xCoords",
          "type": "uint256"
        },
        {
          "name": "yCoords",
          "type": "uint256"
        }
      ],
      "payable": false,
      "stateMutability": "view",
      "type": "function",
      "signature": "0x86f3561c"
    },
    {
      "constant": true,
      "inputs": [],
      "name": "siteCount",
      "outputs": [
        {
          "name": "",
          "type": "uint256"
        }
      ],
      "payable": false,
      "stateMutability": "view",
      "type": "function",
      "signature": "0xd43caae0"
    },
    {
      "inputs": [],
      "payable": false,
      "stateMutability": "nonpayable",
      "type": "constructor",
      "signature": "constructor"
    },
    {
      "constant": false,
      "inputs": [
        {
          "name": "_area",
          "type": "string"
        },
        {
          "name": "_x",
          "type": "uint256"
        },
        {
          "name": "_y",
          "type": "uint256"
        }
      ],
      "name": "addSite",
      "outputs": [],
      "payable": false,
      "stateMutability": "nonpayable",
      "type": "function",
      "signature": "0x905ad487"
    }
  ],
  "bytecode": "0x60806040526000805534801561001457600080fd5b50600080556103e2806100286000396000f3fe6080604052600436106100565763ffffffff7c010000000000000000000000000000000000000000000000000000000060003504166386f3561c811461005b578063905ad48714610112578063d43caae0146101cc575b600080fd5b34801561006757600080fd5b506100856004803603602081101561007e57600080fd5b50356101f3565b6040518085815260200180602001848152602001838152602001828103825285818151815260200191508051906020019080838360005b838110156100d45781810151838201526020016100bc565b50505050905090810190601f1680156101015780820380516001836020036101000a031916815260200191505b509550505050505060405180910390f35b34801561011e57600080fd5b506101ca6004803603606081101561013557600080fd5b81019060208101813564010000000081111561015057600080fd5b82018360208201111561016257600080fd5b8035906020019184600183028401116401000000008311171561018457600080fd5b91908080601f01602080910402602001604051908101604052809392919081815260200183838082843760009201919091525092955050823593505050602001356102a5565b005b3480156101d857600080fd5b506101e1610315565b60408051918252519081900360200190f35b600160208181526000928352604092839020805481840180548651600296821615610100026000190190911695909504601f8101859004850286018501909652858552909491939290919083018282801561028f5780601f106102645761010080835404028352916020019161028f565b820191906000526020600020905b81548152906001019060200180831161027257829003601f168201915b5050505050908060020154908060030154905084565b6000805460019081018083556040805160808101825282815260208082018981528284018990526060830188905293865284815291909420845181559151805192936102f99390850192919091019061031b565b5060408201516002820155606090910151600390910155505050565b60005481565b828054600181600116156101000203166002900490600052602060002090601f016020900481019282601f1061035c57805160ff1916838001178555610389565b82800160010185558215610389579182015b8281111561038957825182559160200191906001019061036e565b50610395929150610399565b5090565b6103b391905b80821115610395576000815560010161039f565b9056fea165627a7a72305820b76fff4c3fc4e3484e9db4002335131823f2c6fb01478ff89b59ebcb650d49db0029",
  "source": "pragma solidity ^0.5.0;\r\n\r\ncontract Accident {\r\n\r\n    uint public siteCount = 0;\r\n\r\n    struct Site{\r\n        uint id;\r\n        string area;\r\n        uint xCoords;\r\n        uint yCoords;\r\n    }\r\n    mapping( uint => Site ) public sites;\r\n    constructor() public {\r\n        siteCount = 0;\r\n    }\r\n    function addSite(string memory _area, uint _x, uint _y) public {\r\n        siteCount ++;\r\n        sites[siteCount] = Site(siteCount, _area, _x, _y);\r\n    }\r\n}",
  "sourcePath": "C:/Users/Dell/newProject/accident_caution/contracts/Accident.sol",
  "compiler": {
    "name": "solc",
    "version": "0.5.0+commit.1d4f565a.Emscripten.clang"
  },
  "schemaVersion": "3.0.1",
  "updatedAt": "2020-02-16T19:33:20.008Z",
  "devdoc": {
    "methods": {}
  },
  "userdoc": {
    "methods": {}
  }
}